{
  "_format": "hh-sol-artifact-1",
  "contractName": "Marketplace",
  "sourceName": "contracts/Marketplace.sol",
  "abi": [
    {
      "inputs": [
        {
          "internalType": "uint256",
          "name": "_feePercent",
          "type": "uint256"
        }
      ],
      "stateMutability": "nonpayable",
      "type": "constructor"
    },
    {
      "anonymous": false,
      "inputs": [
        {
          "indexed": false,
          "internalType": "uint256",
          "name": "itemId",
          "type": "uint256"
        },
        {
          "indexed": true,
          "internalType": "address",
          "name": "nft",
          "type": "address"
        },
        {
          "indexed": false,
          "internalType": "uint256",
          "name": "tokenId",
          "type": "uint256"
        },
        {
          "indexed": false,
          "internalType": "uint256",
          "name": "price",
          "type": "uint256"
        },
        {
          "indexed": true,
          "internalType": "address",
          "name": "seller",
          "type": "address"
        },
        {
          "indexed": true,
          "internalType": "address",
          "name": "buyer",
          "type": "address"
        }
      ],
      "name": "Bought",
      "type": "event"
    },
    {
      "anonymous": false,
      "inputs": [
        {
          "indexed": false,
          "internalType": "uint256",
          "name": "itemId",
          "type": "uint256"
        },
        {
          "indexed": false,
          "internalType": "contract IERC721",
          "name": "nft",
          "type": "address"
        },
        {
          "indexed": false,
          "internalType": "uint256",
          "name": "tokenId",
          "type": "uint256"
        }
      ],
      "name": "Cancelled",
      "type": "event"
    },
    {
      "anonymous": false,
      "inputs": [
        {
          "indexed": false,
          "internalType": "uint256",
          "name": "itemId",
          "type": "uint256"
        },
        {
          "indexed": true,
          "internalType": "address",
          "name": "nft",
          "type": "address"
        },
        {
          "indexed": false,
          "internalType": "uint256",
          "name": "tokenId",
          "type": "uint256"
        },
        {
          "indexed": false,
          "internalType": "uint256",
          "name": "price",
          "type": "uint256"
        },
        {
          "indexed": true,
          "internalType": "address",
          "name": "seller",
          "type": "address"
        }
      ],
      "name": "Listed",
      "type": "event"
    },
    {
      "inputs": [
        {
          "internalType": "uint256",
          "name": "_itemId",
          "type": "uint256"
        }
      ],
      "name": "cancelListing",
      "outputs": [],
      "stateMutability": "nonpayable",
      "type": "function"
    },
    {
      "inputs": [],
      "name": "feeAccount",
      "outputs": [
        {
          "internalType": "address payable",
          "name": "",
          "type": "address"
        }
      ],
      "stateMutability": "view",
      "type": "function"
    },
    {
      "inputs": [],
      "name": "feePercent",
      "outputs": [
        {
          "internalType": "uint256",
          "name": "",
          "type": "uint256"
        }
      ],
      "stateMutability": "view",
      "type": "function"
    },
    {
      "inputs": [],
      "name": "fetchListedItems",
      "outputs": [
        {
          "components": [
            {
              "internalType": "uint256",
              "name": "itemId",
              "type": "uint256"
            },
            {
              "internalType": "contract IERC721",
              "name": "nft",
              "type": "address"
            },
            {
              "internalType": "uint256",
              "name": "tokenId",
              "type": "uint256"
            },
            {
              "internalType": "uint256",
              "name": "price",
              "type": "uint256"
            },
            {
              "internalType": "address payable",
              "name": "seller",
              "type": "address"
            },
            {
              "internalType": "enum Marketplace.State",
              "name": "state",
              "type": "uint8"
            }
          ],
          "internalType": "struct Marketplace.Item[]",
          "name": "",
          "type": "tuple[]"
        }
      ],
      "stateMutability": "view",
      "type": "function"
    },
    {
      "inputs": [
        {
          "internalType": "uint256",
          "name": "_itemId",
          "type": "uint256"
        }
      ],
      "name": "getTotalPrice",
      "outputs": [
        {
          "internalType": "uint256",
          "name": "",
          "type": "uint256"
        }
      ],
      "stateMutability": "view",
      "type": "function"
    },
    {
      "inputs": [],
      "name": "itemCount",
      "outputs": [
        {
          "internalType": "uint256",
          "name": "",
          "type": "uint256"
        }
      ],
      "stateMutability": "view",
      "type": "function"
    },
    {
      "inputs": [
        {
          "internalType": "uint256",
          "name": "",
          "type": "uint256"
        }
      ],
      "name": "items",
      "outputs": [
        {
          "internalType": "uint256",
          "name": "itemId",
          "type": "uint256"
        },
        {
          "internalType": "contract IERC721",
          "name": "nft",
          "type": "address"
        },
        {
          "internalType": "uint256",
          "name": "tokenId",
          "type": "uint256"
        },
        {
          "internalType": "uint256",
          "name": "price",
          "type": "uint256"
        },
        {
          "internalType": "address payable",
          "name": "seller",
          "type": "address"
        },
        {
          "internalType": "enum Marketplace.State",
          "name": "state",
          "type": "uint8"
        }
      ],
      "stateMutability": "view",
      "type": "function"
    },
    {
      "inputs": [
        {
          "internalType": "contract IERC721",
          "name": "_nft",
          "type": "address"
        },
        {
          "internalType": "uint256",
          "name": "_tokenId",
          "type": "uint256"
        },
        {
          "internalType": "uint256",
          "name": "_price",
          "type": "uint256"
        }
      ],
      "name": "newListing",
      "outputs": [],
      "stateMutability": "nonpayable",
      "type": "function"
    },
    {
      "inputs": [
        {
          "internalType": "uint256",
          "name": "_itemId",
          "type": "uint256"
        }
      ],
      "name": "purchaseItem",
      "outputs": [],
      "stateMutability": "payable",
      "type": "function"
    }
  ],
  "bytecode": "0x60c06040523480156200001157600080fd5b50604051620023243803806200232483398181016040528101906200003791906200009c565b60016000819055503373ffffffffffffffffffffffffffffffffffffffff1660808173ffffffffffffffffffffffffffffffffffffffff1660601b815250508060a0818152505050620000ec565b6000815190506200009681620000d2565b92915050565b600060208284031215620000af57600080fd5b6000620000bf8482850162000085565b91505092915050565b6000819050919050565b620000dd81620000c8565b8114620000e957600080fd5b50565b60805160601c60a05161220162000123600039600081816107c8015261087901526000818161079e01526110ae01526122016000f3fe6080604052600436106100865760003560e01c80637fd6f15c116100595780637fd6f15c14610133578063bfb231d21461015e578063ca7dd375146101a0578063cfd31e2c146101dd578063d38ea5bf1461020857610086565b8063305a67a81461008b5780633c4b115b146100b457806365e17c9d146100dd5780636bfb0d0114610108575b600080fd5b34801561009757600080fd5b506100b260048036038101906100ad9190611892565b610224565b005b3480156100c057600080fd5b506100db60048036038101906100d69190611843565b6105d7565b005b3480156100e957600080fd5b506100f261079c565b6040516100ff9190611b28565b60405180910390f35b34801561011457600080fd5b5061011d6107c0565b60405161012a9190611c7c565b60405180910390f35b34801561013f57600080fd5b506101486107c6565b6040516101559190611c7c565b60405180910390f35b34801561016a57600080fd5b5061018560048036038101906101809190611892565b6107ea565b60405161019796959493929190611cce565b60405180910390f35b3480156101ac57600080fd5b506101c760048036038101906101c29190611892565b610873565b6040516101d49190611c7c565b60405180910390f35b3480156101e957600080fd5b506101f26108d6565b6040516101ff9190611b7a565b60405180910390f35b610222600480360381019061021d9190611892565b610e73565b005b6002600054141561026a576040517f08c379a000000000000000000000000000000000000000000000000000000000815260040161026190611c5c565b60405180910390fd5b600260008190555060008111801561028457506001548111155b6102c3576040517f08c379a00000000000000000000000000000000000000000000000000000000081526004016102ba90611b9c565b60405180910390fd5b60006002600083815260200190815260200160002090508060040160149054906101000a900460ff166003811115610324577f4e487b7100000000000000000000000000000000000000000000000000000000600052602160045260246000fd5b6002600381111561035e577f4e487b7100000000000000000000000000000000000000000000000000000000600052602160045260246000fd5b1461039e576040517f08c379a000000000000000000000000000000000000000000000000000000000815260040161039590611c3c565b60405180910390fd5b3373ffffffffffffffffffffffffffffffffffffffff168160040160009054906101000a900473ffffffffffffffffffffffffffffffffffffffff1673ffffffffffffffffffffffffffffffffffffffff1614610430576040517f08c379a000000000000000000000000000000000000000000000000000000000815260040161042790611bfc565b60405180910390fd5b60008160040160146101000a81548160ff0219169083600381111561047e577f4e487b7100000000000000000000000000000000000000000000000000000000600052602160045260246000fd5b02179055506000816003018190555060008160040160006101000a81548173ffffffffffffffffffffffffffffffffffffffff021916908373ffffffffffffffffffffffffffffffffffffffff1602179055508060010160009054906101000a900473ffffffffffffffffffffffffffffffffffffffff1673ffffffffffffffffffffffffffffffffffffffff166323b872dd303384600201546040518463ffffffff1660e01b815260040161053693929190611b43565b600060405180830381600087803b15801561055057600080fd5b505af1158015610564573d6000803e3d6000fd5b505050507faa17fdf5ffb610a4cc0887f35c13c501975a370005080f68441055871952eb81828260010160009054906101000a900473ffffffffffffffffffffffffffffffffffffffff1683600201546040516105c393929190611c97565b60405180910390a150600160008190555050565b6002600054141561061d576040517f08c379a000000000000000000000000000000000000000000000000000000000815260040161061490611c5c565b60405180910390fd5b600260008190555060008111610668576040517f08c379a000000000000000000000000000000000000000000000000000000000815260040161065f90611bbc565b60405180910390fd5b60008061067584866112e9565b8092508193505050811561078157600260038111156106bd577f4e487b7100000000000000000000000000000000000000000000000000000000600052602160045260246000fd5b6002600083815260200190815260200160002060040160149054906101000a900460ff166003811115610719577f4e487b7100000000000000000000000000000000000000000000000000000000600052602160045260246000fd5b141561075a576040517f08c379a000000000000000000000000000000000000000000000000000000000815260040161075190611c1c565b60405180910390fd5b61077c85858560026000868152602001908152602001600020600001546113cd565b61078d565b61078c858585611655565b5b50506001600081905550505050565b7f000000000000000000000000000000000000000000000000000000000000000081565b60015481565b7f000000000000000000000000000000000000000000000000000000000000000081565b60026020528060005260406000206000915090508060000154908060010160009054906101000a900473ffffffffffffffffffffffffffffffffffffffff16908060020154908060030154908060040160009054906101000a900473ffffffffffffffffffffffffffffffffffffffff16908060040160149054906101000a900460ff16905086565b600060647f000000000000000000000000000000000000000000000000000000000000000060646108a49190611db0565b60026000858152602001908152602001600020600301546108c59190611e37565b6108cf9190611e06565b9050919050565b60606000806000600190505b6001548111610a8957610a62600260008381526020019081526020016000206040518060c0016040529081600082015481526020016001820160009054906101000a900473ffffffffffffffffffffffffffffffffffffffff1673ffffffffffffffffffffffffffffffffffffffff1673ffffffffffffffffffffffffffffffffffffffff16815260200160028201548152602001600382015481526020016004820160009054906101000a900473ffffffffffffffffffffffffffffffffffffffff1673ffffffffffffffffffffffffffffffffffffffff1673ffffffffffffffffffffffffffffffffffffffff1681526020016004820160149054906101000a900460ff166003811115610a21577f4e487b7100000000000000000000000000000000000000000000000000000000600052602160045260246000fd5b6003811115610a59577f4e487b7100000000000000000000000000000000000000000000000000000000600052602160045260246000fd5b815250506116c3565b15610a76578280610a7290611f6e565b9350505b8080610a8190611f6e565b9150506108e2565b5060008267ffffffffffffffff811115610acc577f4e487b7100000000000000000000000000000000000000000000000000000000600052604160045260246000fd5b604051908082528060200260200182016040528015610b0557816020015b610af261177f565b815260200190600190039081610aea5790505b5090506000600190505b6001548111610e6957610c8f600260008381526020019081526020016000206040518060c0016040529081600082015481526020016001820160009054906101000a900473ffffffffffffffffffffffffffffffffffffffff1673ffffffffffffffffffffffffffffffffffffffff1673ffffffffffffffffffffffffffffffffffffffff16815260200160028201548152602001600382015481526020016004820160009054906101000a900473ffffffffffffffffffffffffffffffffffffffff1673ffffffffffffffffffffffffffffffffffffffff1673ffffffffffffffffffffffffffffffffffffffff1681526020016004820160149054906101000a900460ff166003811115610c4e577f4e487b7100000000000000000000000000000000000000000000000000000000600052602160045260246000fd5b6003811115610c86577f4e487b7100000000000000000000000000000000000000000000000000000000600052602160045260246000fd5b815250506116c3565b15610e5657600260008281526020019081526020016000206040518060c0016040529081600082015481526020016001820160009054906101000a900473ffffffffffffffffffffffffffffffffffffffff1673ffffffffffffffffffffffffffffffffffffffff1673ffffffffffffffffffffffffffffffffffffffff16815260200160028201548152602001600382015481526020016004820160009054906101000a900473ffffffffffffffffffffffffffffffffffffffff1673ffffffffffffffffffffffffffffffffffffffff1673ffffffffffffffffffffffffffffffffffffffff1681526020016004820160149054906101000a900460ff166003811115610dc7577f4e487b7100000000000000000000000000000000000000000000000000000000600052602160045260246000fd5b6003811115610dff577f4e487b7100000000000000000000000000000000000000000000000000000000600052602160045260246000fd5b81525050828481518110610e3c577f4e487b7100000000000000000000000000000000000000000000000000000000600052603260045260246000fd5b60200260200101819052508280610e5290611f6e565b9350505b8080610e6190611f6e565b915050610b0f565b5080935050505090565b60026000541415610eb9576040517f08c379a0000000000000000000000000000000000000000000000000000000008152600401610eb090611c5c565b60405180910390fd5b60026000819055506000610ecc82610873565b90506000600260008481526020019081526020016000209050600083118015610ef757506001548311155b610f36576040517f08c379a0000000000000000000000000000000000000000000000000000000008152600401610f2d90611b9c565b60405180910390fd5b81341015610f79576040517f08c379a0000000000000000000000000000000000000000000000000000000008152600401610f7090611bdc565b60405180910390fd5b8060040160149054906101000a900460ff166003811115610fc3577f4e487b7100000000000000000000000000000000000000000000000000000000600052602160045260246000fd5b60026003811115610ffd577f4e487b7100000000000000000000000000000000000000000000000000000000600052602160045260246000fd5b1461103d576040517f08c379a000000000000000000000000000000000000000000000000000000000815260040161103490611c3c565b60405180910390fd5b8060040160009054906101000a900473ffffffffffffffffffffffffffffffffffffffff1673ffffffffffffffffffffffffffffffffffffffff166108fc82600301549081150290604051600060405180830381858888f193505050501580156110ab573d6000803e3d6000fd5b507f000000000000000000000000000000000000000000000000000000000000000073ffffffffffffffffffffffffffffffffffffffff166108fc8260030154846110f69190611e91565b9081150290604051600060405180830381858888f19350505050158015611121573d6000803e3d6000fd5b508060010160009054906101000a900473ffffffffffffffffffffffffffffffffffffffff1673ffffffffffffffffffffffffffffffffffffffff166323b872dd303384600201546040518463ffffffff1660e01b815260040161118793929190611b43565b600060405180830381600087803b1580156111a157600080fd5b505af11580156111b5573d6000803e3d6000fd5b5050505060038160040160146101000a81548160ff02191690836003811115611207577f4e487b7100000000000000000000000000000000000000000000000000000000600052602160045260246000fd5b02179055503373ffffffffffffffffffffffffffffffffffffffff168160040160009054906101000a900473ffffffffffffffffffffffffffffffffffffffff1673ffffffffffffffffffffffffffffffffffffffff168260010160009054906101000a900473ffffffffffffffffffffffffffffffffffffffff1673ffffffffffffffffffffffffffffffffffffffff167f8b4c9c8a607d67b321582dd8461041b1dc2ceeca70c8b7f37f8e02095cf2e76d86856002015486600301546040516112d493929190611d2f565b60405180910390a45050600160008190555050565b6000806000600190505b60015481116113bd5784600260008381526020019081526020016000206002015414801561138257508373ffffffffffffffffffffffffffffffffffffffff166002600083815260200190815260200160002060010160009054906101000a900473ffffffffffffffffffffffffffffffffffffffff1673ffffffffffffffffffffffffffffffffffffffff16145b156113aa576001600260008381526020019081526020016000206000015492509250506113c6565b80806113b590611f6e565b9150506112f3565b50600080915091505b9250929050565b8373ffffffffffffffffffffffffffffffffffffffff166323b872dd3330866040518463ffffffff1660e01b815260040161140a93929190611b43565b600060405180830381600087803b15801561142457600080fd5b505af1158015611438573d6000803e3d6000fd5b505050506040518060c001604052808281526020018573ffffffffffffffffffffffffffffffffffffffff1681526020018481526020018381526020013373ffffffffffffffffffffffffffffffffffffffff168152602001600260038111156114cb577f4e487b7100000000000000000000000000000000000000000000000000000000600052602160045260246000fd5b815250600260008381526020019081526020016000206000820151816000015560208201518160010160006101000a81548173ffffffffffffffffffffffffffffffffffffffff021916908373ffffffffffffffffffffffffffffffffffffffff160217905550604082015181600201556060820151816003015560808201518160040160006101000a81548173ffffffffffffffffffffffffffffffffffffffff021916908373ffffffffffffffffffffffffffffffffffffffff16021790555060a08201518160040160146101000a81548160ff021916908360038111156115de577f4e487b7100000000000000000000000000000000000000000000000000000000600052602160045260246000fd5b02179055509050503373ffffffffffffffffffffffffffffffffffffffff168473ffffffffffffffffffffffffffffffffffffffff167f0d770f67a166dfb160ca3991c3a328328d7d3899464a55a6fa63448ceda4952383868660405161164793929190611d2f565b60405180910390a350505050565b60008111611698576040517f08c379a000000000000000000000000000000000000000000000000000000000815260040161168f90611bbc565b60405180910390fd5b600160008154809291906116ab90611f6e565b91905055506116be8383836001546113cd565b505050565b60003373ffffffffffffffffffffffffffffffffffffffff16826080015173ffffffffffffffffffffffffffffffffffffffff16148015611778575060026003811115611739577f4e487b7100000000000000000000000000000000000000000000000000000000600052602160045260246000fd5b8260a001516003811115611776577f4e487b7100000000000000000000000000000000000000000000000000000000600052602160045260246000fd5b145b9050919050565b6040518060c0016040528060008152602001600073ffffffffffffffffffffffffffffffffffffffff1681526020016000815260200160008152602001600073ffffffffffffffffffffffffffffffffffffffff16815260200160006003811115611813577f4e487b7100000000000000000000000000000000000000000000000000000000600052602160045260246000fd5b81525090565b6000813590506118288161219d565b92915050565b60008135905061183d816121b4565b92915050565b60008060006060848603121561185857600080fd5b600061186686828701611819565b93505060206118778682870161182e565b92505060406118888682870161182e565b9150509250925092565b6000602082840312156118a457600080fd5b60006118b28482850161182e565b91505092915050565b60006118c78383611a8f565b60c08301905092915050565b6118dc81611ed7565b82525050565b6118eb81611ed7565b82525050565b6118fa81611ec5565b82525050565b600061190b82611d76565b6119158185611d8e565b935061192083611d66565b8060005b8381101561195157815161193888826118bb565b975061194383611d81565b925050600181019050611924565b5085935050505092915050565b61196781611f38565b82525050565b61197681611f38565b82525050565b61198581611f5c565b82525050565b61199481611f5c565b82525050565b60006119a7601383611d9f565b91506119b282612044565b602082019050919050565b60006119ca601f83611d9f565b91506119d58261206d565b602082019050919050565b60006119ed603383611d9f565b91506119f882612096565b604082019050919050565b6000611a10601783611d9f565b9150611a1b826120e5565b602082019050919050565b6000611a33601683611d9f565b9150611a3e8261210e565b602082019050919050565b6000611a56601483611d9f565b9150611a6182612137565b602082019050919050565b6000611a79601f83611d9f565b9150611a8482612160565b602082019050919050565b60c082016000820151611aa56000850182611b0a565b506020820151611ab8602085018261195e565b506040820151611acb6040850182611b0a565b506060820151611ade6060850182611b0a565b506080820151611af160808501826118d3565b5060a0820151611b0460a085018261197c565b50505050565b611b1381611f2e565b82525050565b611b2281611f2e565b82525050565b6000602082019050611b3d60008301846118e2565b92915050565b6000606082019050611b5860008301866118f1565b611b6560208301856118f1565b611b726040830184611b19565b949350505050565b60006020820190508181036000830152611b948184611900565b905092915050565b60006020820190508181036000830152611bb58161199a565b9050919050565b60006020820190508181036000830152611bd5816119bd565b9050919050565b60006020820190508181036000830152611bf5816119e0565b9050919050565b60006020820190508181036000830152611c1581611a03565b9050919050565b60006020820190508181036000830152611c3581611a26565b9050919050565b60006020820190508181036000830152611c5581611a49565b9050919050565b60006020820190508181036000830152611c7581611a6c565b9050919050565b6000602082019050611c916000830184611b19565b92915050565b6000606082019050611cac6000830186611b19565b611cb9602083018561196d565b611cc66040830184611b19565b949350505050565b600060c082019050611ce36000830189611b19565b611cf0602083018861196d565b611cfd6040830187611b19565b611d0a6060830186611b19565b611d1760808301856118e2565b611d2460a083018461198b565b979650505050505050565b6000606082019050611d446000830186611b19565b611d516020830185611b19565b611d5e6040830184611b19565b949350505050565b6000819050602082019050919050565b600081519050919050565b6000602082019050919050565b600082825260208201905092915050565b600082825260208201905092915050565b6000611dbb82611f2e565b9150611dc683611f2e565b9250827fffffffffffffffffffffffffffffffffffffffffffffffffffffffffffffffff03821115611dfb57611dfa611fb7565b5b828201905092915050565b6000611e1182611f2e565b9150611e1c83611f2e565b925082611e2c57611e2b611fe6565b5b828204905092915050565b6000611e4282611f2e565b9150611e4d83611f2e565b9250817fffffffffffffffffffffffffffffffffffffffffffffffffffffffffffffffff0483118215151615611e8657611e85611fb7565b5b828202905092915050565b6000611e9c82611f2e565b9150611ea783611f2e565b925082821015611eba57611eb9611fb7565b5b828203905092915050565b6000611ed082611f0e565b9050919050565b6000611ee282611f0e565b9050919050565b6000611ef482611ec5565b9050919050565b6000819050611f0982612189565b919050565b600073ffffffffffffffffffffffffffffffffffffffff82169050919050565b6000819050919050565b6000611f4382611f4a565b9050919050565b6000611f5582611f0e565b9050919050565b6000611f6782611efb565b9050919050565b6000611f7982611f2e565b91507fffffffffffffffffffffffffffffffffffffffffffffffffffffffffffffffff821415611fac57611fab611fb7565b5b600182019050919050565b7f4e487b7100000000000000000000000000000000000000000000000000000000600052601160045260246000fd5b7f4e487b7100000000000000000000000000000000000000000000000000000000600052601260045260246000fd5b7f4e487b7100000000000000000000000000000000000000000000000000000000600052602160045260246000fd5b7f6974656d20646f65736e27742065786973747300000000000000000000000000600082015250565b7f5072696365206d7573742062652067726561746572207468616e207a65726f00600082015250565b7f6e6f7420656e6f75676820657468657220746f20636f766572206974656d207060008201527f7269636520616e64206d61726b65742066656500000000000000000000000000602082015250565b7f4d7573742062652074686520746f6b656e206f776e6572000000000000000000600082015250565b7f4974656d20697320616c7265616479206c697374656400000000000000000000600082015250565b7f4974656d206d757374206265206c69737465642e000000000000000000000000600082015250565b7f5265656e7472616e637947756172643a207265656e7472616e742063616c6c00600082015250565b6004811061219a57612199612015565b5b50565b6121a681611ee9565b81146121b157600080fd5b50565b6121bd81611f2e565b81146121c857600080fd5b5056fea264697066735822122030a5bad9721ca6c15d4e95cb8d39d08407c150ae3dedaf0c8e69822fe2fb4f2864736f6c63430008040033",
  "linkReferences": {},
  "deployedLinkReferences": {}
}